:08000000842004000000000050
:100200003220EF00C3102000008041001040BA00EF
:100210000160EF0000000600415400002B43000085
:1002200049500000434C00004F53000045000000BF
:100230003220EF0043122000008041001040BA003D
:100240000160EF0000000600415400002B43000055
:1002500052450000473F0000000000003220EF0040
:10026000A3132000008041001040BA000160EF009D
:1002700000000600415400002B43000047410000ED
:10028000545400003F0000003220EF00031520000E
:10029000008041001040BA000160EF00000006003D
:1002A000415400002B430000495000005348000017
:1002B00055540000000000003220EF00831620009B
:1002C000008041001040BA000160EF00000006000D
:1002D000415400002B43000053540000543D0000E3
:1002E0002277000077770000222C000022220000F5
:1002F0002C22000022200000000000003220EF002D
:10030000A3182000008041001040BA000160EF00F7
:1003100000000600415400002B4300004949000042
:1003200043520000000000003220EF00031A2000BA
:10033000008041001040BA000160EF00000006009C
:1003400041540000202B00004349000046530000A8
:10035000520000003220EF00631B200000804100AB
:100360001040BA000160EF00000006004154000098
:100370002B4300004950000053540000415200003C
:10038000543D00002254000043500000222C000085
:1003900022250000732200002C220000257300009B
:1003A000220000003220EF00E31D20000080410009
:1003B0001040BA000160EF00000006006D710000FF
:1003C000747400002E6A0000776300006C61000006
:1003D000622E0000636F00006D0000003220EF000D
:1003E000A31F2000008041001040BA000160EF0010
:1003F0000000060031380000383300000000000023
:100400003220EF00C3202000008041001040BA00DD
:100410000160EF0000000600415400002B43000083
:1004200049500000534500004E4400003B000000CE
:100430003220EF0043222000008041001040BA002B
:100440000160EF00000006004D5100005454000010
:10045000000000003220EF006323200000804100F4
:100460001040BA000160EF000000060041420000A9
:100470004344000045460000000000003220EF0029
:10048000230320008301500005003100A325200034
:10049000008041001040BA000160EF00000006003B
:1004A000A025200083814100808141001380BA0093
:1004B00000000600257356007B22220044453A00C6
:1004C00056492500434566005F492C00442222001E
:1004D0003A224400646555006D6F53005F73540009
:1004E0007461220074693A006F6E2500222C660048
:1004F00022542C004D502200223A5000256648001C
:100500002C22220048553A004D2225003A2566004B
:10051000662C7D00225500003220EF008329200048
:10052000008041001040BA000160EF0000000600AA
:100530006A770000636C0000616200002F640000B5
:10054000656D00006F5F000073740000617400004F
:10055000696F00006E0000003220EF00832B200046
:10056000008041001040BA000160EF00000006006A
:100570003D3D00003D3D00003D3D00003D4A000086
:10058000574300004C41000042200000535400003B
:1005900041520000543D00003D3D00003D3D000043
:1005A0003D3D00003D0000003220EF00032E200002
:1005B000008041001040BA000160EF00000006001A
:1005C0003D3D00003D3D00003D3D00003D4A000036
:1005D000574300004C41000042200000434F000000
:1005E0004E4E0000454300005420000042520000DF
:1005F0004F4B0000455200003D3D00003D3D0000D6
:100600003D3D00003D3D0000000000003220EF00B5
:1006100023312000008041001040BA000160EF004B
:10062000000006003D3D00003D3D00003D3D000056
:100630003D4A0000574300004C41000042200000AA
:10064000534500004E440000204400004154000087
:1006500041200000425200004F4B00004552000074
:100660003D3D00003D3D00003D3D00003D3D0000A2
:10067000000000003220EF006334200000804100C1
:100680001040BA000160EF00000006003D3D000090
:100690003D3D00003D3D00003D4A00005743000045
:1006A0004C41000042200000434C00004F5300002A
:1006B00045200000425200004F4B00004552000010
:1006C0003D3D00003D3D00003D3D00003D3D000042
:1006D0000000000034FF2F0044158800A222EF0024
:1006E000A422EF00040E2800041588000000060074
:1006F0000000E0004220AF0004003700CB070900F3
:10070000000000000000E900FCFF3A0000000600C5
:10071000E14780001104E000070032000F22AF0023
:10072000FEFF37000140900010E2B7001162EF00B9
:100730008100E800F7FF37000F22AF00FEFF37000F
:10074000D4002000841088000F22AF00FEFF370085
:10075000A400200084108800D0C0B3001922AF008C
:10076000FEFF37001AE2B7001B62EF000000060030
:1007700001002000010078000160EF00000102008C
:10078000000000008100E8000F22AF00FEFF3700EC
:1007900010A2B700A00020000008E600F5FF370017
:1007A000D0C0B3001922AF00FEFF37001AE2B70035
:1007B0001B62EF00401F20007803020000000000D1
:1007C0001922AF00FEFF370014042000D410880067
:1007D0001922AF00FEFF370044052000D410880026
:1007E000D0C0B3001922AF00FEFF37001AE2B700F5
:1007F0001B62EF00401F2000780302000000000091
:1008000001002000010078000160EF0018010200E3
:10081000000000008100E8001922AF00FEFF370051
:100820001AA2B700700020000008E600F5FF3700AC
:10083000D0C0B3001922AF00FEFF37001AE2B700A4
:100840001B62EF00401F2000780302000000000040
:1008500001002000010078000160EF002E0102007D
:10086000000000008100E8001922AF00FEFF370001
:100870001AA2B700800020000008E600F5FF37004C
:10088000D0C0B3001922AF00FEFF37001AE2B70054
:100890001B62EF00401F20007803020000000000F0
:1008A00001002000010078000160EF004401020017
:1008B000000000008100E8001922AF00FEFF3700B1
:1008C0001AA2B700900020000008E600F5FF3700EC
:1008D000D0C0B3001922AF00FEFF37001AE2B70004
:1008E0001B62EF00401F20007803020000000000A0
:1008F00001002000010078000160EF005C010200AF
:10090000000000008100E8001922AF00FEFF370060
:100910001AA2B700300120000008E600F5FF3700FA
:10092000D0C0B3001922AF00FEFF37001AE2B700B3
:100930001B62EF00803E20007803020000000000F0
:1009400001002000010078000160EF007E0102003C
:10095000000000008100E8001922AF00FEFF370010
:100960001AA2B700700020000008E600F5FF37006B
:10097000D0C0B3001922AF00FEFF37001AE2B70063
:100980001B62EF00401F20007803020000000000FF
:1009900001002000010078000160EF0094010200D6
:1009A000000000008100E8001922AF00FEFF3700C0
:1009B0001AA2B700800020000008E600F5FF37000B
:1009C000D0C0B3001922AF00FEFF37001AE2B70013
:1009D0001B62EF00401F20007803020000000000AF
:1009E00000000600811F7800814680008058780052
:1009F0008048EB00CF007800D028EC000000060013
:100A0000851F7800080CF8000A0CF9000A8CBF005A
:100A10001004E000030032000A2CEC00060504007C
:100A2000000000005460800043608000030052001A
:100A3000CF02780000000600851F7800861F78002E
:100A4000871F7800C4AF2000844688000100200082
:100A5000010078000160EF00AA0102000000000020
:100A60008100E800811F7800801F78004F00780027
:100A7000F204020000000000CF00780020012000F6
:100A80000008E600F2FF37000500200005007800AE
:100A9000D2010200000000000040B3004220AF007D
:100AA000040037008502E800F204020000000000A4
:100AB000F6FF370020C2B300F2040200000000007D
:100AC000C0C2B300F20402000000000020C2B30064
:100AD000F20402000000000006002000060078007A
:100AE000EE010200000000000040B3004220AF0011
:100AF000040037000603E800F204020000000000D2
:100B0000F6FF370020C2B300F2040200000000002C
:100B1000C1AF20001104E000070032001922AF002D
:100B2000FEFF3700014090001AE2B7001B62EF00A1
:100B30008100E800F7FF3700D0C0B3001922AF00F2
:100B4000FEFF37001AE2B7001B62EF00C0DA200098
:100B5000780302000000000001002000010078007E
:100B60000160EF0000020200000000008100E800C8
:100B70001922AF00FEFF37001AA2B700A000200024
:100B80000008E600F5FF3700D0C0B3001922AF001F
:100B9000FEFF37001AE2B7001B62EF0020032000BF
:100BA0007803020000000000530020000200200033
:100BB000C1BF2000831F78000200780018020200E5
:100BC00000000000CF017800805878000201E800A2
:100BD0008301E9004220AE00F6FF3700C48F2000F9
:100BE00084468800C1BF20001104E00008003200E4
:100BF000811F78000102780014407800F20402009E
:100C000000000000CF0078008100E800F6FF370008
:100C10007300200002002000C1BF2000831F780065
:100C2000020078002A02020000000000CF017800D4
:100C3000805878000201E8008301E9004220AE00FC
:100C4000F6FF3700C49F200084468800C1BF200003
:100C50001104E00008003200811F780001027800D2
:100C600014407800F204020000000000CF00780079
:100C70008100E800F6FF3700C48F20004460880040
:100C8000000502000000000080427800C49F2000A0
:100C9000446088000005020000000000054040009C
:100CA0000080FB000160EF00680040008042780097
:100CB0005300200002002000C1BF2000831F7800E5
:100CC000020078001802020000000000CF01780046
:100CD000805878000201E8008301E9004220AE005C
:100CE000F6FF3700C4BF2000446088000005020002
:100CF0000000000000437800C49F2000446088008A
:100D00000005020000000000804378001922AF00B7
:100D1000FEFF370004012000D41088001922AF0024
:100D2000FEFF37001A02F800E5FF9F001A02F900E3
:100D30001B62EF001922AF00FEFF37001A22EF00FE
:100D40001922AF00FEFF37001A02F800E6FF9F00ED
:100D50001A02F9001B62EF00C18F20001104E000AD
:100D6000070032001922AF00FEFF3700014090005B
:100D70001AE2B7001B62EF008100E800F7FF3700BE
:100D80001922AF00FEFF370044002000D410880075
:100D90001922AF00FEFF370024002000D410880085
:100DA0001922AF00FEFF37001A22EF001922AF0010
:100DB000FEFF3700C4032000D41088001922AF00C2
:100DC000FEFF37001A22EF001922AF00FEFF3700A6
:100DD0001A02F800E7FF9F001A02F9001B62EF00F9
:100DE000C19F20001104E000070032001922AF006B
:100DF000FEFF3700014090001AE2B7001B62EF00CF
:100E00008100E800F7FF37001922AF00FEFF37002E
:100E1000A4012000D4108800CF0378004F0378008D
:100E2000CF02780000000600851F7800C500200072
:100E300003000900B51F78000002780081027800E5
:100E400002037800830378000000EB008000EB00D1
:100E50000001EB008001EB000800A10007F0A600F4
:100E6000050037000800A0000402EA008582EA00BD
:100E70000683EA008783EA008504720002003A00D4
:100E80008704730015003200394720000340A70093
:100E90000B0037004200A9000482D2008582D200F4
:100EA0000683D2008783D2000080D2008180D200E6
:100EB0000281D2008381D2008904E900F3FF3A0065
:100EC000C44CDD004200A90009F0A1000340A100CC
:100ED00083816C000800A70003F0A000250120001A
:100EE00003000900CF127800CF027800000006004E
:100EF000881F78002801200004000900B81F78002E
:100F00008005EB006066B800030478008704780071
:100F1000FA7F20004200A9004220A90044C4DE005C
:100F2000080465000800E000710032004200A900DA
:100F30004220A900C4CCDE00890465000900E0005D
:100F40006B0032000884440009B0A7000400370099
:100F5000F83FB10066003200650039000300370039
:100F60001A402000854245006100310087866900F3
:100F70004200A9004220A900F300B2000340A000F3
:100F8000F700B2000740A000881F78000124B800D5
:100F9000002DB8000A0544008B854C000C80B00081
:100FA0000224B8008B0544000C864C00012CB800CC
:100FB0000005EB008B0544000C864C000A80B00055
:100FC0000034B8008B0544000C864C000A80B00049
:100FD0008005EB000324B8000C0644000A854C0091
:100FE0000B80B000022CB8000C0644000A854C00AF
:100FF0000B80B0000134B8000C0644000A854C0098
:101000000B80B000003CB8000C0644000A854C0080
:101010000B80B0000C0078000006EB00032CB80039
:101020000A0544008B854C000C80B0000234B800E7
:101030000A0544008B854C000C80B0000334B800D6
:101040008B0544000C864C00013CB8000A054400A6
:101050008B854C000C80B000023CB8008B0544002E
:101060000C864C00033CB8000C0644008A00780053
:101070000B0178008C017800540020004200A90088
:101080008381D3000281D3008180D3000080D3000C
:101090000402E900F9FF3A004F0478000804E80070
:1010A00001037000010032000200370003037100E9
:1010B000080032000340A700060037004200A900E4
:1010C0000080D2008180D2000281D2008381D200D0
:1010D0000804E9004444DD0003F0A1000DF0A7007E
:1010E00003F0A0000340A10083016C00030037005F
:1010F0006000B8006001B80000003700A8012000BF
:10110000040009004F1478004F0478000000060026
:10111000881F78002801200004000900B81F78000B
:10112000878669000304780087047800FA7F20002E
:101130004200A9004220A90044C4DE000804650062
:101140000800E0006C0032004200A9004220A90023
:10115000C4CCDE00890465000900E00066003200AE
:101160000005EB000906540003003900FC3FB00005
:1011700061003100040037001B4020000B065600C0
:101180005D0039005C0032000004EB008004EB00DD
:101190000005EB008005EB00F301B2000340A00066
:1011A000F701B2000740A0008C1F78006C032000FC
:1011B00004005000858058000601590087815900BD
:1011C000020033000600310006003A00040040002F
:1011D00085804800060149008781490001003700E9
:1011E0000800A0000C06E9000B0032004200A90034
:1011F0000080D2008180D2000281D2008381D2009F
:101200004200A9000884D2008984D2000A85D20055
:101210008B85D200E6FF37004F0678000B50A70001
:1012200001003700060037004200A9008B85D3007B
:101230000A85D3008984D3000884D30003003700D3
:101240000C06E9004200A9002B0032004200AF006A
:10125000090037000080D2008180D2000281D200D4
:101260008381D20004025000858258000603590091
:1012700087835900150039000804E80013003A007C
:101280008904E80011003A000A05E8000F003A005E
:101290008B05E8000D003A000C06E800160032004D
:1012A0000A0037000C06E900130032000B40A700CB
:1012B000060037004200A9000884D2008984D200C9
:1012C0000A85D2008B85D200F8FF37004466DD0026
:1012D0004200A9000CF0A1000DF0A7000CF0A00046
:1012E0000B40A1008B016E000A0178008900780094
:1012F00008007800050037000000200001002000F1
:10130000020020000300200000003700A801200098
:10131000040009004F1478004F0478000000060014
:10132000851F7800861F7800030278000303780089
:101330004200A90044A2DE00F57F20000482620082
:1013400003003A006000B8000001EB001300370012
:101350000438B100F300B200370020004200A900B9
:101360000080D2008180D2000281D2008381D2002D
:101370008703E900F9FF3A00010078008200780055
:101380000370A1000480FD004200A9000482D30084
:1013900006F0A70004F0A00003016A004F037800E4
:1013A000CF02780000000600851F7800861F7800B5
:1013B000871F78000382680004F0A600060037004B
:1013C0004200A9004220A90001F0A6002600370033
:1013D0004200A80024003700010278008002780053
:1013E00003037800820378008180D2000180FD0031
:1013F0008381D2000380FD0081C0510005003200CE
:1014000004F0A600180037001000200042E0B600EB
:101410001500370084407800864178000170A100F3
:101420000370A10081C051000500320004F0A60045
:101430000D0037001000200042E0B6000A0037001F
:10144000858053000500320004F0A6000600370036
:101450001000200042E0B600030037004200A9005F
:101460000100370000003700CF0378004F037800F9
:10147000CF027800000006000001780081017800AA
:10148000014078000080FD0000F0A0008180D200C3
:101490000180FD008180FB00E408200081405200B3
:1014A000060032000000E000040032004200A90003
:1014B0000080D3008100E900FAFF3A0003F0A600A3
:1014C000020037000000EA000000370000000600BC
:1014D000851F7800861F7800E10820000000E000EA
:1014E0001200320000F0A700040037004200A900FB
:1014F0000080D2008100E900FAFF37000180FD0082
:101500004200A9008180D30000F0A1000080FD000E
:10151000814068000040B2000700370001407800B9
:101520000170A0000140B200030037000000EB0092
:101530008000EB00000037004F037800CF027800F6
:1015400000000600851F7800C50020000400090087
:10155000B51F7800000278008102780083037800CC
:10156000020378004200A9004220A9008180D20035
:101570000180FD00F10FB2000100E0004B003200DD
:101580004200A9004220A9008381D2000380FD000F
:10159000F30FB2000300E000440032000080FB00C3
:1015A00001C0410004003100F007B1003F003200EB
:1015B0003E003900020037001048B0003B00310007
:1015C00007856A004200A9004220A900F50FB20079
:1015D0000570A0004200A900F70FB2000770A0003C
:1015E0000621B800062CB80083014C008900780061
:1015F0004200AF008100E8004200A900043CB800AE
:1016000083014C0081804C00072CB80081004C0005
:101610000000E8000100E0004220AF0001003700B8
:10162000030037000300E0004220AF000500370050
:1016300001F0A700030037008381D2008180D2002F
:101640000000E900010178004200A9000370A60033
:101650000900370007F02F00878161000310B000F8
:10166000600149000200E00003003A000300E000CE
:1016700001003A000000E8000080FD004200A900DF
:101680004220A9008080D3000AF0A70001F0A0004A
:1016900002F0A1000280FD00814069000380FD008E
:1016A00003417800020078000300370000002000AA
:1016B000010020000000370045012000040009005F
:1016C000CF127800CF02780000000600851F780056
:1016D000C500200003000900B51F78008004EB005E
:1016E000080028004300AF0083016C000000E00008
:1016F00003003A00FAFF27000A8560004220AE008E
:10170000010578008A856900010378008303780069
:10171000030678004220A9004200A9000683D200F7
:101720000680FD00F60FB2000600E000A1003200C6
:101730004220A9004200A9008783D2000780FD0053
:10174000F70FB2000700E0009F0032004220A9001E
:101750004200A9000638E1009C003200A3003300DB
:101760000900A1000910A0000684530007037800B7
:10177000F10FB2000170A000F30FB2000370A000DF
:10178000870220000838E100110033004220A90040
:101790004200A9008180D3000080D3000804E90042
:1017A000FAFF3A000D003700870220000838E100F8
:1017B000090033004220A9004200A9008381D30020
:1017C0000281D3000804E900FAFF3A000F00370055
:1017D0000200780083007800430037000BF0A60079
:1017E000110037000940A7008C0578000000EA00CE
:1017F0000200320081C0EA00010037008100EA00E7
:101800000940A7002B003700070037000BF0A600A7
:10181000050037000201EA000200320083C1EA003D
:10182000010037008301EA00F50FB2004220A90051
:101830004200A9000200400083C048004200AF00FF
:101840000930A0000900A700090037000910A7000F
:10185000010037000B0037000BF0A7001500370020
:101860000930A700290037000960A0001E003700DA
:101870000BF0A7000F0037000930A7002300370046
:10188000190037000920A1000BF0A7000400370061
:101890008A0578000930A7001C00370036003700A1
:1018A0000940A00001C8B2000170A700CDFF3700B9
:1018B0008A057800F10FB200810370000A0032003F
:1018C0000170A700080037004220A9004200A900CB
:1018D0000080D2008180D2000603E9004220AF00E0
:1018E00031003700F6FF37000900A7008A057800AD
:1018F0000910A7008C0578000950A6001A003700CF
:101900000AF0A7000080A0001B0037004200A800DA
:1019100081C0D3000080D3004200AF000950A00076
:101920000603E800200032000950A6000800370036
:101930000000E80006003A008140E80004003A0098
:1019400081C0D3000080D3000603E80016003200F7
:101950000900A7008A0578000910A7008C05780007
:101960004220AF00100037000960A7008A05780008
:101970000970A7008C057800010170002300320077
:101980000170A1000680FD004220A9004200A900CC
:101990000683D30081006B0001F0A0000BF0A600CD
:1019A00001F0A10019003700000020000100200014
:1019B000160037000AF0A70083016C0002007800CF
:1019C000830078001100370010003700F30FB200D9
:1019D0000370A000F10FB2000170A0000BF0A7008F
:1019E0000370A1000920A00088FF370007045300FE
:1019F000F10FB2000170A000F30FB2000370A0005D
:101A00000910A1000900A00067FF37002501200090
:101A100003000900CF127800CF0278000000060012
:101A2000851F7800861F78006F0AA9006A0AF800EF
:101A3000700AF9006C0AF800720AF9006A8ABF009D
:101A4000615380000200200003002000D40902003E
:101A500000000000060039006F0AA80000A720005F
:101A600001A7200003000900B018780073EAAA005B
:101A7000708ABF0091538000020020000370240090
:101A8000D409020000000000010031000A003A0001
:101A9000708ABF00915380003C0A020000000000E1
:101AA000680A02000000000074AAB700B153880061
:101AB000F00D040000000000708ABF009153800008
:101AC0000268290083B12400D4090200000000004C
:101AD0003F003900708ABF0091538000020020004F
:101AE00003802300A20A0200000000003C0A02005A
:101AF0000000000078AAB700708ABF0091538000F0
:101B00000200200003802300A20A0200000000005F
:101B10008002780001037800788ABF00680A02001A
:101B2000000000004300A800000178008101780057
:101B30000500780086007800660B020000000000B7
:101B4000000178008101780000002000017024006D
:101B5000A20A02000000000070AAB700915388009A
:101B6000788ABF00680A02000000000000017800C7
:101B7000810178000000200001702400A20A020008
:101B80000000000074AAB700B1538800708ABF003B
:101B9000915380003C0A020000000000680A020025
:101BA000000000004300A9000001780081017800D6
:101BB000748ABF00B1538000660B02000000000071
:101BC00074AAB700B1538800F00D040000000000B3
:101BD000700AF800740AF900720AF800760AF9002F
:101BE000708ABF00915380003C0A02000000000090
:101BF000680A0200000000004300A800000178000D
:101C000081017800708ABF0091538000660B02004A
:101C10000000000070AAB700915388006F0AAE0060
:101C20000500370040A7200041A72000030009005D
:101C3000B018780077EAAA00708ABF00915380003C
:101C40000200200003002000D40902000000000070
:101C50001B0032006F0AAE000B0037006E4AE20034
:101C600009003A004300A800748ABF00B153800005
:101C70000200200003F82300660B020000000000B1
:101C800074AAB700B15388006F0AAF000C00370088
:101C9000745380006124E10009003A004300A90068
:101CA000748ABF00B15380000200200003F82300B3
:101CB000660B02000000000074AAB700B153880050
:101CC0006A8ABF00615380000200200003002000E8
:101CD000D40902000000000002003A00742AEF005C
:101CE000762AEF00748ABF00B15380004F0378005A
:101CF000CF027800000006006E6AEF005C0AF80070
:101D00006A0AF9005E0AF8006C0AF900100D020078
:101D1000000000000000BE0000000600851F7800E3
:101D2000861F7800871F7800881F78002400200015
:101D3000341588001200090000000000A002A9006C
:101D4000A022A800A002AE00FEFF37008002F8002B
:101D5000560AF900568ABF008001EB0000F0A70088
:101D60008081EB00830078000301780014070200F3
:101D700000000000040020000500200006002C00E8
:101D80002709240078070200000000008002780084
:101D9000010378008203780003047800851F78002F
:101DA000861F7800871F780005007800860078007D
:101DB0000701780088017800040020000500200059
:101DC00006A02500470A2400880802000000000041
:101DD000CF0378004F037800CF027800900902000B
:101DE00000000000C1528800D2528800580AF80052
:101DF0005C0AF9005A0AF8005E0AF9007C0E02003B
:101E0000000000003C0A02000000000056AAB700D3
:101E1000560AF8000000F9004F047800CF0378005C
:101E20004F037800CF02780000000600851F78007D
:101E3000861F7800E10820000600A10000F0A6003F
:101E4000030037000600A0000000EA000000370091
:101E50000000E0001400320000F0A700040037008A
:101E60004200A9000080D2008100E900FAFF37009B
:101E70000180FD004200A9008180D30000F0A10094
:101E80000080FD00814068000040B2000600A7000D
:101E900001F0A00007003700014078000170A000A9
:101EA0000140B200030037000000EB008000EB00AF
:101EB000000037004F037800CF02780000000600D2
:101EC000851F7800C500200004000900B51F7800B8
:101ED0008004EB00838468000103780080027800AE
:101EE00003047800820378008180D2000180FD0025
:101EF0008180FB000100E0004E0032008381D200AF
:101F00000380FD008381FB000300E00049003200F4
:101F10000000EB0003C0500003003900F047B000A0
:101F200044003100030037001048B100410039007F
:101F30004000320085007800060178000270A000A1
:101F4000F20FB200F80FB2000870A0009A01200052
:101F50008001EB000002EB0087805000080159006F
:101F6000020033000400310004003A008780400082
:101F700008014900010037000400A0000A05E9003B
:101F8000070032004200A9008180D2000281D20005
:101F90004200A9000482D2008381D200EEFF370004
:101FA0000005EB000380A7000100370006003700A2
:101FB0004200A9008381D3000370A1000482D300F2
:101FC0000A85D200020037000000E9001900320043
:101FD0000AF0A700050039008180D2000281D200FA
:101FE0008780500008015900090039000402E80008
:101FF00007003A008301E80005003A000000E8000D
:102000000C003200020037000000E9000900320035
:102010000080FD008080D30001F0A00009F0A60040
:1020200001F0A1000370A10081C0690004007800E4
:1020300003003700000020000100200000003700EE
:102040004501200004000900CF127800CF0278007B
:1020500000000600851F7800C5002000040009006C
:10206000B51F78008E0E0200000000004CAAB700D9
:102070006452800043062000110009000302D800CA
:1020800001007800160F02000000000080027800B6
:10209000010378004C8ABF00160F02000000000008
:1020A0004300A8000501780086017800660B020055
:1020B0000000000080037800010478000700780029
:1020C0008800780002002000832C2400600F0200AA
:1020D0000000000080037800010478006452800052
:1020E00043062000110009000302D8000100780017
:1020F000160F02000000000080047800010578003F
:10210000090078008A00780002002000832C240057
:10211000600F0200000000004300A90000017800E9
:10212000810178000700780088007800660B0200C3
:10213000000000004EAAB700815288000000200075
:10214000011024007252800083528000A20A020013
:102150000000000080027800010378004300A8001E
:10216000050078008600780002002000031024009B
:10217000660B02000000000052AAB700A1528800BE
:102180000E27090000000000528ABF00A152800003
:102190004501200004000900CF127800CF0278002A
:1021A00000000600851F7800861F7800402AEF0097
:1021B000045280006A20E1000C003D0004528000BF
:1021C0006420B80004A12000840240002A1002000C
:1021D0000000000004002000B41A7800B41A78004F
:1021E000402AEC00D810040000000000422AEF0052
:1021F000145280006920E10038003D001452800034
:102200006102420024528800245280006A20E100CA
:102210002F003D00145280006420B80004A120006B
:1022200004004000A4002000301A7800301A780022
:10223000245280006420B80004A120000400400063
:102240000002780003002000B4197800B419780067
:102250000501780086017800D40902000000000022
:1022600018003900145280006420B80004A1200036
:102270000400400084A32000301A7800301A78004F
:10228000145280006420B80004A1200084024000A1
:10229000245280006420B80004A120000400400003
:1022A000B01A7800B01A7800245280006420B80078
:1022B00004A120008402400084A32000B41A780006
:1022C000B41A7800442AEC00041104000000000055
:1022D000422AEC00F8100400000000003C2AEF0045
:1022E0003E2AEF002400200034528800345280003F
:1022F0006820E10014003D00345280006420B800E2
:1023000004A1200004004000000278000300200027
:10231000B4197800B41978004300A90000017800CE
:10232000810178003C8ABF00F1518000660B0200F9
:10233000000000003CAAB700F1518800462AEC00DA
:1023400076110400000000003C8ABF00F1518000BB
:1023500002002000030C2400600F020000000000B7
:102360000000BE004F037800CF0278000000060096
:10237000DE22A900E022A9004E03090000000000AF
:10238000FF3F090000000000FF3F090000000000BF
:10239000FF3F090000000000E022A8003A00090009
:1023A00000000000DE22A8000000060060C9B300A3
:1023B000B6E8B700E022AF000900370002000900CC
:1023C00000000000B668ED00B648E20002003A00E6
:1023D0000060EF0011003700DA1104000000000077
:1023E00060C9B300B6E8B700E022AE0009003700CC
:1023F0000200090000000000B668ED00B648E200E7
:1024000002003A000060EF0004003700F4110400FD
:102410000000000010C0B30000E0B700000006009C
:10242000126AEF00DE22A800102AEF00845080001C
:102430006820E10012003D00E022AE00FEFF370000
:102440004E00090000000000E022AE000700370047
:1024500074002000835080000300520000027800C6
:10246000100020000400DD00126AB700E022AF0077
:10247000FEFF3700102AEC001612040000000000D6
:1024800012CABF0000E0B70000000600E442A90045
:10249000E842A9000600090000000000E442A9008B
:1024A000E842A8009E0F090000000000C1E2A90058
:1024B000C5E2A90020C2A9002002AE000200370038
:1024C00024C2BF00FCFF370060C0B30024E2B700A5
:1024D0002002AE00FEFF37009E0F09000000000042
:1024E000C1E2A900C5E2A800020009000000000046
:1024F00000000600C1E2A900C5E2A900CE0709005C
:102500000000000020C2A9002002AE000200370037
:1025100024C2BF00FCFF370060C0B30024E2B70054
:102520002002AE00FEFF37009E0F090000000000F1
:10253000C1E2A900C5E2A8001E0E090000000000CB
:10254000FF3F090000000000C1E2A900C5E2A900A8
:1025500020C2A9002002AE000200370024C2BF0042
:10256000FCFF370000C4B30024E2B7002002AE0035
:10257000FEFF370020C2A9002002AE000200370093
:1025800024C2BF00FCFF370030C0B30024E2B70014
:102590002002AE00FEFF370020C2A9002002AE00DC
:1025A0000200370024C2BF00FCFF370070C1B30037
:1025B00024E2B7002002AE00FEFF370020C2A900CF
:1025C0002002AE000200370024C2BF00FCFF37002B
:1025D0002462EF002002AE00FEFF370020C2A900F7
:1025E0002002AE000200370024C2BF00FCFF37000B
:1025F00080C3B30024E2B7002002AE00FEFF370024
:1026000020C2A9002002AE000200370024C2BF0091
:10261000FCFF370080C0B30024E2B7002002AE0008
:10262000FEFF370020C2A9002002AE0002003700E2
:1026300024C2BF00FCFF3700A0C4B30024E2B700EF
:102640002002AE00FEFF370020C2A9002002AE002B
:102650000200370024C2BF00FCFF370010C0B300E7
:1026600024E2B7002002AE00FEFF370020C2A9001E
:102670002002AE000200370024C2BF00FCFF37007A
:1026800070C0B30024E2B7002002AE00FEFF3700A6
:1026900020C2A9002002AE000200370024C2BF0001
:1026A000FCFF370070C7B30024E2B7002002AE0081
:1026B000FEFF3700C1E2A900C5E2A800E462A9005C
:1026C000E862A9000000060014538000F307200010
:1026D0000418E1000E003C000400350004538000A3
:1026E000F3FF2F000418E1000900310004538000BB
:1026F00060005200145380000488B1008400780008
:102700000000BE000A00370098130400000000001B
:102710000453800060024200040078000408200096
:1027200013538000848049000000BE000000370081
:1027300000000600851F7800861F7800C1E2A9000E
:10274000C5E2A900E462A900E862A800020009004D
:1027500000000000E462A900E862A900C1C2A8006C
:10276000C3C2AF00FDFF370020C2A9002002AE00A7
:102770000200370024C2BF00FCFF370020C1B300B5
:1027800024E2B7002002AE00FEFF3700000009007F
:102790000000000020C2A9002002AE0002003700A5
:1027A00024C2BF00FCFF370020C0B30024E2B70002
:1027B0002002AE00FEFF370024C2BF0058EAB70077
:1027C00020C2A9002002AE000200370024C2BF00D0
:1027D000FCFF370020C0B30024E2B7002002AE00A7
:1027E000FEFF370024C2BF0059EAB70020C2A9008B
:1027F0002002AE000200370024C2BF00FCFF3700F9
:1028000020C0B30024E2B7002002AE00FEFF370074
:1028100024C2BF005AEAB700C1E2A900C5E2A8007D
:102820000D60EF0058CABF000EE0B70059CABF00E4
:10283000004078000BE0B7005ACABF000AE0B700BA
:10284000055388001653880064130200000000003E
:102850000000BE004F037800CF02780000000600A1
:10286000881F78002801200004000900B81F7800A4
:10287000080028004300AF0087036C000000E00060
:1028800007003A000100E00005003A000200E00005
:1028900003003A00FAFF27000A8561004220AE00DB
:1028A000030578008A856B000304780087047800AC
:1028B00007067800FD7F20004220A9004200A90001
:1028C00044C4DE00088466000800E000BC0032005A
:1028D0004220A9004200A900C4CCDE008984660021
:1028E0000900E000BE0032008006EB004220A90093
:1028F0004200A9000848E100BA003200C1003300DC
:102900000D00A1000D10A00008845400F300B200D7
:102910000340A000F700B2000740A0004803B10048
:1029200016003B004803B0004220A9004200A90065
:102930008381D3000281D3008180D3000080D30043
:102940000804E900F8FF3A00140037004803B1001A
:102950000F003B004803B0004220A9004200A9003C
:102960008783D3000683D3008582D3000482D300FB
:102970000804E900F8FF3A001B0037000400780063
:102980008500780006017800870178000C866D00CC
:102990000CF0A7000BF0A200790037000BF0A600A6
:1029A0001F0037000D40A7008C0578000080EA006A
:1029B0008180EA000281EA0083C1EA00F341B200AB
:1029C0000000E80005003A008100E80003003A003A
:1029D0000201E80001003A008341E8000D40A70031
:1029E000320037000E0037000BF0A6000C00370055
:1029F0000482EA008582EA000683EA0087C3EA00CF
:102A0000F741B2000402E80005003A008502E80040
:102A100003003A000603E80001003A008743E8009B
:102A20004220A9004200A90004004000858048001F
:102A30000601490087C149000350A7000D30A000DE
:102A40000D00A700090037000D10A7000100370096
:102A50000B0037000BF0A700140037000D30A70063
:102A6000290037000D60A000210037000BF0A700FF
:102A70000E0037000D30A700230037001C00370080
:102A80000BF0A700040037008A0578000D30A7007E
:102A90001D0037003A0037000D40A00003C1B2000E
:102AA0000340A700BFFF37008A057800F301B2009A
:102AB0000284710002003A00008470000C003200B1
:102AC0000340A7000A0037004220A9004200A900E5
:102AD0000080D2008180D2000281D2008381D200A6
:102AE0008904E9004220AF0032003700F4FF3700CC
:102AF0000D00A7008A0578000D10A7008C0578004E
:102B00000D50A6001E0037004200A90083C1D3006B
:102B10000281D3008180D3000080D3004200AF0047
:102B20000D50A0008904E8004220AF0021003700CA
:102B30000D50A6000E0037000000E8000C003A001F
:102B40008100E8000A003A000201E80008003A00AB
:102B50008301E80006003A0083C1D3000281D3005C
:102B60008180D3000080D3008904E8001100320086
:102B70000D00A7008A0578000D10A7008C057800CD
:102B80000102700002003A000302710026003200C8
:102B90000340A1004220A9004200A900C44CDD006E
:102BA00083816C0003F0A0000BF0A60003F0A100ED
:102BB0001D0037006000B8006011B8001A0037002F
:102BC000080028000AF0A70087036C008500780041
:102BD00004007800060178008701780012003700B1
:102BE00011003700F700B2000740A000F300B20068
:102BF0000340A0000BF0A7000740A1000D20A0009B
:102C000079FF3700F300B2000340A000F700B200E4
:102C10000740A00009045400890444000D10A100DD
:102C20000D00A00049FF3700A801200004000900A2
:102C30004F1478004F04780000000600851F7800CC
:102C4000861F7800871F7800881F780046120200D0
:102C5000000000007A12020000000000CC82A900EF
:102C6000D082A9002E020900000000009A13020081
:102C7000000000004CAAB700715288004E00090005
:102C800000000000CC82A900D082A8009E0B0900A1
:102C900000000000FF3F0900000000004C8ABF0058
:102CA000715280008001EB0001F0A7008081EB00F1
:102CB0000301780014070200000000000400200057
:102CC00005002000060020000716240088080200E6
:102CD0000000000080027800010378008203780081
:102CE00003047800851F7800861F7800871F78000E
:102CF00005007800860078000701780088017800D8
:102D0000C49F2A00152F2D00D6242600070024007A
:102D10007807020000000000CF0378004F0378001E
:102D2000CF027800800278000103780082037800E7
:102D3000030478004300A800851F7800861F7800F0
:102D4000871F78000500780086007800070178006A
:102D50008801780004982E006512230086C02A009E
:102D6000C7F923003014020000000000CF037800F0
:102D70004F037800CF0278009009020000000000A5
:102D80008152880092528800B0472100E1E223007E
:102D90008252800093528000A20A020000000000CC
:102DA00080027800010378004300A8000500780045
:102DB00086007800D2CC2C00C3DC2300660B020016
:102DC0000000000054AAB700B15288003E1C090060
:102DD00000000000FF3F090000000000FF3F090065
:102DE00000000000548ABF00B15280004F047800F8
:102DF000CF0378004F037800CF0278000000060070
:102E0000851F7800861F7800402AEF00045280005A
:102E10006A20E1000C003D00045280006420B800EC
:102E200004A12000840240001E16020000000000E1
:102E300004002000B41A7800B41A7800402AEC008C
:102E40000617040000000000422AEF001452800020
:102E50006920E10038003D00145280006102420008
:102E600024528800245280006A20E1002F003D0097
:102E7000145280006420B80004A120000400400027
:102E8000A4002000301A7800301A78002452800004
:102E90006420B80004A12000040040000002780073
:102EA00003002000B4197800B419780005017800F7
:102EB00086017800D40902000000000018003900E3
:102EC000145280006420B80004A1200004004000D7
:102ED00084A32000301A7800301A78001452800041
:102EE0006420B80004A12000840240002452800025
:102EF0006420B80004A1200004004000B01A78004B
:102F0000B01A7800245280006420B80004A1200088
:102F10008402400084A32000B41A7800B41A780018
:102F2000442AEC003217040000000000422AEC00A2
:102F300026170400000000003C2AEF003E2AEF00A4
:102F40002400200034528800345280006820E100C0
:102F500014003D00345280006420B80004A1200019
:102F6000040040000002780003002000B41978003B
:102F7000B41978004300A9000001780081017800AD
:102F80003C8ABF00F1518000660B02000000000087
:102F90003CAAB700F1518800462AEC00A4170400AF
:102FA000000000003C8ABF00F151800002002000B8
:102FB000030C2400600F0200000000000000BE00AF
:102FC0004F037800CF02780000000600C1E2A9009C
:102FD000C5E2A900CE0709000000000020C2A90038
:102FE0002002AE000200370024C2BF00FCFF370001
:102FF00060C0B30024E2B7002002AE00FEFF37003D
:103000009E0F090000000000C1E2A900C5E2A8006F
:103010001E0E090000000000FF3F09000000000034
:10302000C1E2A900C5E2A90020C2A9002002AE00A9
:103030000200370024C2BF00FCFF370000C4B30009
:1030400024E2B7002002AE00FEFF370020C2A90034
:103050002002AE000200370024C2BF00FCFF370090
:1030600030C0B30024E2B7002002AE00FEFF3700FC
:1030700020C2A9002002AE000200370024C2BF0017
:10308000FCFF3700F0C0B30024E2B7002002AE001E
:10309000FEFF370020C2A9002002AE000200370068
:1030A00024C2BF00FCFF37002462EF002002AE0004
:1030B000FEFF370020C2A9002002AE000200370048
:1030C00024C2BF00FCFF370080C3B30024E2B70076
:1030D0002002AE00FEFF370020C2A9002002AE0091
:1030E0000200370024C2BF00FCFF370080C0B300DD
:1030F00024E2B7002002AE00FEFF370020C2A90084
:103100002002AE000200370024C2BF00FCFF3700DF
:10311000A0C4B30024E2B7002002AE00FEFF3700D7
:1031200020C2A9002002AE000200370024C2BF0066
:10313000FCFF370010C0B30024E2B7002002AE004D
:10314000FEFF370020C2A9002002AE0002003700B7
:1031500024C2BF00FCFF370070C0B30024E2B700F8
:103160002002AE00FEFF370020C2A9002002AE0000
:103170000200370024C2BF00FCFF370070C7B30055
:1031800024E2B7002002AE00FEFF3700C1E2A90032
:10319000C5E2A800E462A900E862A90000000600F8
:1031A000851F7800861F7800C1E2A900C5E2A9004A
:1031B000E462A900E862A800020009000000000023
:1031C000E462A900E862A900C1C2A800C3C2AF00BE
:1031D000FDFF370020C2A9002002AE000200370028
:1031E00024C2BF00FCFF370020C1B30024E2B700B7
:1031F0002002AE00FEFF37000000090000000000C2
:1032000020C2A9002002AE000200370024C2BF0085
:10321000FCFF370010C0B30024E2B7002002AE006C
:10322000FEFF370024C2BF0058EAB70020C2A90041
:103230002002AE000200370024C2BF00FCFF3700AE
:1032400010C0B30024E2B7002002AE00FEFF37003A
:1032500024C2BF0059EAB70020C2A9002002AE0074
:103260000200370024C2BF00FCFF370010C0B300CB
:1032700024E2B7002002AE00FEFF370024C2BF00E8
:103280005AEAB700C1E2A900C5E2A8000D60EF004C
:1032900058CABF000EE0B70059CABF00004078000E
:1032A0000BE0B7005ACABF000AE0B7000553880018
:1032B0001653880064130200000000000000BE00E6
:1032C0004F037800CF02780000000600851F7800C9
:1032D000861F7800871F7800881F7800461202003A
:1032E00000000000E617020000000000D0180200F5
:1032F000000000004CAAB700715288004C8ABF0041
:10330000715280008001EB0001F0A7008081EB008A
:1033100003017800140702000000000004002000F0
:10332000050020000600200007162400880802007F
:10333000000000008002780001037800820378001A
:1033400003047800851F7800861F7800871F7800A7
:103350000500780086007800070178008801780071
:10336000C49F2A00152F2D00D62426000700240014
:103370007807020000000000CF0378004F037800B8
:10338000CF02780080027800010378008203780081
:10339000030478004300A800851F7800861F78008A
:1033A000871F780005007800860078000701780004
:1033B0008801780004982E006512230086C02A0038
:1033C000C7F923003014020000000000CF0378008A
:1033D0004F037800CF02780090090200000000003F
:1033E000815288009252880060662600610B2C0092
:1033F0008252800093528000A20A02000000000066
:1034000080027800010378004300A90005007800DD
:103410008600780022852B00A31A2400660B020088
:103420000000000054AAB700B15288000E2709001E
:1034300000000000548ABF00B15280004F047800A1
:10344000CF0378004F037800CF0278000000060019
:10345000851F7800861F7800402AEF000452800004
:103460006A20E1000C003D00045280006420B80096
:1034700004A1200084024000661902000000000040
:1034800004002000B41A7800B41A7800402AEC0036
:103490002E1A040000000000422AEF00145280009F
:1034A0006920E10038003D001452800061024200B2
:1034B00024528800245280006A20E1002F003D0041
:1034C000145280006420B80004A1200004004000D1
:1034D000A4002000301A7800301A780024528000AE
:1034E0006420B80004A1200004004000000278001D
:1034F00003002000B4197800B419780005017800A1
:1035000086017800D409020000000000180039008C
:10351000145280006420B80004A120000400400080
:1035200084A32000301A7800301A780014528000EA
:103530006420B80004A120008402400024528000CE
:103540006420B80004A1200004004000B01A7800F4
:10355000B01A7800245280006420B80004A1200032
:103560008402400084A32000B41A7800B41A7800C2
:10357000442AEC005A1A040000000000422AEC0021
:103580004E1A0400000000003C2AEF003E2AEF0023
:103590002400200034528800345280006820E1006A
:1035A00014003D00345280006420B80004A12000C3
:1035B000040040000002780003002000B4197800E5
:1035C000B41978004300A900000178008101780057
:1035D0003C8ABF00F1518000660B02000000000031
:1035E0003CAAB700F1518800462AEC00CC1A04002E
:1035F000000000003C8ABF00F15180000200200062
:10360000030C2400600F0200000000000000BE0058
:103610004F037800CF02780000000600851F780075
:1036200082017800820278004200A9008381D200E2
:103630000380FD00F30FB20003003A006000B80001
:103640006011B800160037000338B000F207B2006E
:10365000360020000002EB004200A9000281D300E6
:103660008180D3000080D3004200AF000402E80054
:103670000603E900F8FF3A000270A100C419DD005A
:1036800003F0A10005F0A70003F0A000830169008A
:103690000101780080007800810042000000EB000A
:1036A000CF02780000000600851F7800C5002000CA
:1036B00005000900B51F7800030478008203780034
:1036C0000103780080027800830478003B472000E3
:1036D000C499DE00FA7F20008301650083855500D0
:1036E000F801B2000840A0000000EB008000EB00F1
:1036F0000001EB008001EB004200A9000884D30028
:103700008783D3000683D3008582D3008381D300CF
:103710000281D3008180D3000080D3008B05E900B3
:10372000F5FF3A0009F0A600050037000000EA00A6
:103730008180EA000281EA008381EA00000037000C
:103740006501200005000900CF127800CF02780043
:10375000000006008C1F78008D1F78000004EB002D
:103760008004EB000005EB008005EB000006EB0099
:103770008006EB00E8002000090020001000FA009D
:103780000C377C000884E900FDFF3B0005046A005B
:1037900002003A0007046B002F0032000004EB0027
:1037A0000D0420000D0420004200A9000080D2007A
:1037B0008180D2000281D2008381D2000884D200AD
:1037C0008984D2000A85D2008B85D2000758E10097
:1037D00005003A0006D0E10003003A0005C8E10008
:1037E00001003A0004C0E10005003900040454005F
:1037F00085845C0006055D0087855D004200A800A9
:10380000080F7800190798002A0798003B079800CE
:103810004E049000DE0490006E059000FE059000BE
:103820000884D2008984D2000A85D2008B85D20018
:1038300048079800590798006A0798007B07980086
:103840001E0478009E0490002E059000BE05900096
:103850008D06E900D4FF3A004E009000DE00900093
:103860006E019000FE0190000080FA000000370019
:10387000CF0678004F06780000000600851F78000C
:10388000C500200007000900B51F78002A00FA00D3
:10389000880220000006EB000C377C000884E90059
:1038A000FDFF3B004A1798000900E0000D003200C0
:1038B00039179800470224000003EB006022B8008B
:1038C00029179800470224000003EB006022B8008B
:1038D0007807020000000000AE1490008904E9009F
:1038E000F7FF3A00BE149000480120002817980006
:1038F000D71C240056D62C006022B800000F980078
:10390000110F9800220F9800330F980048012000F3
:103910000817980004002000859E280046302200E9
:1039200077AC2800440F9800550F9800660F980058
:10393000770F980003F0A600040037004E149000A3
:103940000804E90008D0A0004817980003F0A1007F
:10395000541B0200000000004E149000BE149000A2
:103960000900E0004220AF000844E8004817980032
:103970009E1490008004EB00191798004E0A9000E6
:10398000DE0A90006E0B9000FE0B9000AA1B020056
:10399000000000009E1690000D00A7006800370090
:1039A000080F9800190F98002A0F98003B0F9800F5
:1039B0009E1690000D00A2001D1798000000E00068
:1039C00012003A00BE1490008904E8002E15900001
:1039D000090455000D003200CE1590000B00E000E8
:1039E0000E0032007F84650008045500010032009B
:1039F000470031000BF0A700450037000BE0A7009F
:103A000006003700000220003A003700CE15900073
:103A10000C0022008B0566004B179800CE15900015
:103A20000BD0A600100037000BD0A100BE149000F0
:103A30000900E0004220AE008B05E9008005EB00A4
:103A40004B17980000057800811F7800D0C2B300A2
:103A5000F204020000000000CF0078000A007800A5
:103A60008005EB004B179800BE1490002E159000B7
:103A7000090455000D003A008005EB004B17980033
:103A800000057800811F7800E0C2B300F204020054
:103A900000000000CF007800CE1590000C0022003E
:103AA0008B0566004B1798000A0078000103200080
:103AB000CE1590000BD0A6000E0037000BD0A10051
:103AC000BE1490000900E0004220AE008B05E90022
:103AD0008005EB004B179800811F7800D0C2B3001F
:103AE000F204020000000000CF0078000000EB00AC
:103AF0000103200000804000811F7800801F7800B3
:103B00004F007800F204020000000000CF007800AF
:103B1000AE1690008D06E900190032002D179800AE
:103B20004E089000DE0890006E099000FE0990009B
:103B3000A40020008002EB006033B80093FF370040
:103B4000400F9800510F9800620F9800730F980073
:103B50000002780081027800020378008303780075
:103B60000E0890009E0890002E099000BE0990005B
:103B70009E1690000D00A2001D17980083FF3700CD
:103B80000080FA00A501200007000900CF1278008C
:103B9000CF02780000000600851F7800861F78009D
:103BA000891F78008A1F7800D210020000000000F0
:103BB000BCA8B700F1458800B81102000000000061
:103BC000D6110200000000000004E00000003200F6
:103BD0001012020000000000B9E8B7001012020045
:103BE00000000000BAE8B700101202000000000058
:103BF000B7E8B7001012020000000000B8E8B700F4
:103C00001012020000000000B7C8BF000160EF0002
:103C1000680A0200000000008002780001037800BA
:103C20000500780086007800020020000338240098
:103C3000A20A020000000000800278000103780060
:103C4000B8C8BF000160EF00680A02000000000071
:103C50004300A90000017800810178000500780088
:103C600086007800660B02000000000080027800E9
:103C7000010378000500780086007800020020002B
:103C800003122400600F020000000000C8A8B70063
:103C900051468800B9C8BF000160EF00680A020001
:103CA0000000000080027800010378000500780021
:103CB000860078000200200003382400A20A0200D7
:103CC000000000008002780001037800BAC8BF003D
:103CD0000160EF00680A0200000000004300A90034
:103CE00000017800810178000500780086007800E6
:103CF000660B0200000000008002780001037800DB
:103D000005007800860078000200200003122400DD
:103D1000600F020000000000CCA8B70071468800C8
:103D20000017020000000000C0A8B700114688007C
:103D3000C088BF0011468000020020000300200060
:103D4000D40902000000000002003900C028EF0082
:103D5000C228EF00281A020000000000C4A8B70023
:103D60003146880001002000010078000160EF006A
:103D700000020200000000008100E8001922AF00EC
:103D8000FEFF37001AA2B700A00020000008E600DE
:103D9000F5FF3700D0C0B3001922AF00FEFF370097
:103DA0001AE2B7001B62EF00401F200078030200F8
:103DB000000000004301200002002000C19F2000FD
:103DC000831F7800020078008C02020000000000CF
:103DD000CF017800805878000201E8008301E900F3
:103DE0004220AE00F6FF3700C48F200084468800D2
:103DF000C19F20001104E00008003200811F7800FC
:103E00000102780014407800F20402000000000073
:103E1000CF0078008100E800F6FF37002100200085
:103E2000010078000160EF003E0202000000000087
:103E30008100E800811F7800801F78004F00780023
:103E4000F204020000000000CF00780030022000E1
:103E50000008E600F2FF370052468000414680002D
:103E6000000020000E1B02000000000029002000BE
:103E70008A0028003E1C02000000000061022000B1
:103E8000010078000160EF003E0202000000000027
:103E90008100E800811F7800801F78004F007800C3
:103EA000F204020000000000CF007800C0022000F1
:103EB0000008E600F2FF370072468000614680008D
:103EC000000020000E1B020000000000290020005E
:103ED0008A0028003E1C020000000000F1022000C1
:103EE000010078000160EF003E02020000000000C7
:103EF0008100E800811F7800801F78004F00780063
:103F0000F204020000000000CF007800400320000F
:103F10000008E600F2FF3700F2458000E14580002E
:103F2000000020000E1B02000000000029002000FD
:103F30008A0028003E1C02000000000071032000DF
:103F4000010078000160EF003E0202000000000066
:103F50008100E800811F7800801F78004F00780002
:103F6000F204020000000000CF007800E00320000F
:103F70000008E600F2FF370012468000014680008C
:103F8000000020000E1B020000000000290020009D
:103F90008A0028003E1C02000000000011042000DE
:103FA000010078000160EF003E0202000000000006
:103FB0008100E800811F7800801F78004F007800A2
:103FC000F204020000000000CF007800600420002E
:103FD0000008E600F2FF37003246800021468000EC
:103FE000000020000E1B020000000000290020003D
:103FF0008A0028003E1C020000000000D0C7B30069
:10400000F204020000000000C48F20004460880019
:1040100000050200000000000080FB000160EF00CE
:10402000620040008042780043012000020020002E
:10403000C19F2000831F7800020078008C020200DC
:1040400000000000CF017800805878000201E800ED
:104050008301E9004220AE00F6FF3700C49F200034
:104060004460880000050200000000000043780062
:104070001922AF00FEFF370004032000D41088008F
:104080001922AF00FEFF37001A02F800E5FF9F007B
:104090001A02F9001B62EF001922AF00FEFF370081
:1040A0001A22EF001922AF00FEFF37001A02F800B3
:1040B000E6FF9F001A02F9001B62EF00C18F20008B
:1040C0001104E000070032001922AF00FEFF3700A4
:1040D000014090001AE2B7001B62EF008100E80087
:1040E000F7FF37001922AF00FEFF3700A4012000C0
:1040F000D41088004F057800CF0478004F03780073
:10410000CF027800000006000F782200F07F220026
:1041100020A0B7000000000081E0A80004002800F3
:10412000641088000440200074108800C40020003F
:10413000A410880004002800B41088000440200067
:10414000C4108800C4002000F410880021E2A900F7
:10415000DF02A900DEE2A800DEC2A90020C2A90099
:10416000341720001411880021E2A800A8A2EF0053
:104170004C0037008002080000000000C006080064
:10418000060000004BF03F005C0A5800F63B8F0031
:1041900000C03C008B28AC003CBEF6003FD2D500EE
:1041A00044168C0015D7BF0069005A002E1B8700EB
:1041B000993F9A005FAD4B0091E40100C05D110092
:1041C0002F92E40081FB3F0038DA9100809DC5000A
:1041D000E0BF6F0012C0B400C309AB003F6BC10069
:1041E000034EC100B545BF00F7400500FF005A006F
:1041F000EF3FF300A3E2F700D7FF010040C0B40097
:10420000FF053C0058FC3F003BD3C000B5BA8C0012
:10421000E23F3900D3C73D004179B2003F870D002E
:104220003C50D000AF623F00304B8D00A282AA000C
:1042300004400900A0404A000576030040EC9E00BF
:104240003788A60044F03F008F128D00299A5B004A
:10425000C73F0E00E0807C00A1D886003F294B00BC
:10426000FB95C200371A3F00000000000201E80081
:104270006110E10004003A009101BA003182BA00F5
:1042800006C0BF00000006006210E10002003A0014
:1042900007C0BF000000060008C0BF000001EB001F
:1042A00000000600060020000000200090018800A9
:1042B000A00B2200800078000001EB0036210200F4
:1042C000000000000BE0B7003621020000000000F3
:1042D0000AE0B7000500E0001900320005F0A60072
:1042E0000700370036210200000000000DE0B70093
:1042F00036210200000000000CE0B70005F0A1002C
:1043000005E0A6000800370005E0A1008502E900ED
:10431000362102000000000080437800058009007B
:10432000075B7800E5FF370036210200000000003F
:10433000005B78008502E900FBFF3A00DFFF3700F1
:104340006A03020000000000803E200078030200A3
:1043500000000000D228EF00C3012000020020006E
:10436000418D2000831F780002007800AC0202001B
:1043700000000000CF017800805878000201E800BA
:104380008301E9004220AE00F6FF3700448D200093
:10439000E44788008803020000000000B803020020
:1043A000000000002003200078030200000000004D
:1043B0005302200002002000418D2000831F78005E
:1043C00002007800D402020000000000CF01780053
:1043D000805878000201E8008301E9004220AE0025
:1043E000F6FF3700448D2000E44788008803020070
:1043F000000000001C05020000000000800C2000EE
:104400007803020000000000730220000200200078
:10441000418D2000831F780002007800060302000F
:1044200000000000CF017800805878000201E80009
:104430008301E9004220AE00F6FF3700448D2000E2
:10444000E44788008803020000000000CC1D020041
:104450000000000080382100780302000000000006
:10446000D228EC009446800084BEB2003C003A00A2
:104470003302200002002000418D2000831F7800BD
:10448000020078003A03020000000000CF0178002B
:10449000805878000201E8008301E9004220AE0064
:1044A000F6FF3700448D2000E447880088030200AF
:1044B0000000000001002000010078000160EF0012
:1044C00000010200000000008100E8001922AF0096
:1044D000FEFF37001AA2B700A00020000008E60087
:1044E000F5FF3700D0C0B3001922AF00FEFF370040
:1044F0001AE2B7001B62EF0080BB200078030200C5
:10450000000000005302200002002000418D200026
:10451000831F780002007800D4020200000000002F
:10452000CF017800805878000201E8008301E9009B
:104530004220AE00F6FF3700448D2000E44788009B
:1045400088030200000000001C05020000000000BB
:10455000200320007803020000000000D228EF00B2
:0C45600004220400000000000040FE00E7
:0200000401F009
:10000000040300FF3F0000FF338000FF0F3100FFBB
:0C0010000F3300FF070000FF03C000FFDB
:00000001FF
;DSPIC30F6014
;CRC=8D8C  CREATED="27-Oct-20 10:34"
